:100000000C9467000C948F000C948F000C94DE0607
:100010000C94DE060C94DE060C948F000C948F007A
:100020000C948F000C948F000C948F000C948F0014
:100030000C948F000C948F000C948F000C948F0004
:100040000C9456070C948F000C94C6070C94A007D0
:100050000C948F000C948F000C948F000C948F00E4
:100060000C948F000C948F000000000024002700E7
:100070002A00000000090003020000040508000037
:100080000000000000000000000000000023002627
:1000900000290000000000250028002B00040404B3
:1000A0000404040404020202020202030303030321
:1000B0000302020301020408102040800102040828
:1000C000102001020408102040804000F80711248D
:1000D0001FBECFEFD8E0DEBFCDBF23E0A8E5B1E083
:1000E00001C01D92A53CB207E1F711E0A0E0B1E02C
:1000F000E6ECFFE102C005900D92A835B107D9F7F3
:1001000010E0C7E6D0E004C02197FE010E94B60EC1
:10011000C636D107C9F70E940F090C94E10F0C9461
:100120000000FC01BC01625F7F4F90E05CE8E617D5
:10013000F70789F0419188E0A92FA427292F30E003
:1001400035952795922FA0FF02C0952F92274695AF
:10015000815091F7ECCF892F0895482FE8EAF2E01B
:1001600020E08FEF9FEF241791F03191832738E043
:10017000BC016170772796958795672B21F051E038
:10018000852750EA9527315099F72F5FECCF0895D6
:100190002091E7013091E8012817390771F4909117
:1001A000E5018091E601981741F0E091E501F0E06A
:1001B000EB55FE4F808190E008958FEF9FEF0895FB
:1001C0000895EF92FF920F931F93CF93DF93DC017B
:1001D0005C96ED90FC905D97E114F10479F481E078
:1001E00090E013969C938E93129790E080E0DF91BD
:1001F000CF911F910F91FF90EF9008955196ED913F
:10020000FC91529750968C915097982F90950FB7DC
:100210005E962C915E97122F127021FD6095F894D6
:100220002081112319F1282B2083E7012197F1F771
:1002300028E0462F50E0308160FF1AC0382B308311
:10024000E7012197F1F7BA0175956795215089F774
:10025000112381F08081892380830FBF5C968D916B
:100260009C910197F1F781E090E0C1CF2923DCCF89
:100270003923E5CF9081892BEFCF2091E701309191
:10028000E8012817390761F48091E6012091E50122
:1002900090E0805C9F4F821B91098F73992708958E
:1002A00090E080E008952091E7013091E80128175F
:1002B0003907B9F49091E5018091E601981789F02A
:1002C000E091E501F0E0EB55FE4F80812091E501E2
:1002D00030E02F5F3F4F2F7333272093E50190E0ED
:1002E00008958FEF9FEF0895843081F028F48230D5
:1002F000E9F08330F9F00895883071F0893091F099
:100300008530B9F4809180008F7D03C0809180009A
:100310008F778093800008958091B0008F778093CD
:10032000B00008958091B0008F7DF9CF84B58F77AC
:1003300084BD089584B58F7DFBCFCF93DF93282FA5
:1003400030E0F901EE58FF4F8491F901EC54FF4F72
:10035000D491F901E356FF4FC491CC23A1F0811150
:100360000E947401EC2FF0E0EE0FFF1FE757FF4FE4
:10037000A591B491EC91ED2381E090E009F480E047
:10038000DF91CF91089580E090E0FACF1F93CF9353
:10039000DF93282F30E0F901EE58FF4F8491F901E7
:1003A000EC54FF4FD491F901E356FF4FC491CC2395
:1003B000A9F0162F81110E947401EC2FF0E0EE0FCE
:1003C000FF1FED56FF4FA591B4918FB7F894EC91B4
:1003D000111108C0D095DE23DC938FBFDF91CF9140
:1003E0001F910895DE2BF8CFCF93DF939091A80251
:1003F000992309F44BC0C82F0E94AD00D0E0FE0144
:10040000EF55FD4F878390878091A7028F3F19F0AA
:1004100061E00E94C6018091A5029091A602AE0102
:100420004E5F5F4FDC01ED91FC910280F381E02D86
:1004300068EA72E009958091A5029091A602DC011C
:10044000ED91FC910680F781E02D09958091A7023E
:100450008F3F19F060E00E94C6018091A502909143
:10046000A602DC01ED91FC910084F185E02D099557
:10047000892B61F08091A5029091A602DC01ED919B
:10048000FC910284F385E02D0995E7CFDF91CF91B0
:100490000895E1EAF2E0908590689087818783E093
:1004A0000C94F401CF93DF9390E0FC01EC54FF4FE8
:1004B000249183569F4FFC0184918823C9F090E0DA
:1004C000880F991FFC01E859FF4FA591B491FC01D9
:1004D000ED56FF4FC591D49161110DC09FB7F894AF
:1004E0008C91209582238C938881282328839FBF19
:1004F000DF91CF910895623051F49FB7F8943C9109
:10050000822F809583238C93E8812E2BEFCF8FB79A
:10051000F894EC912E2B2C938FBFEACF3FB7F89431
:100520008091A1019091A201A091A301B091A40199
:1005300026B5A89B05C02F3F19F00196A11DB11D3E
:100540003FBFBA2FA92F982F8827BC01CD01620F7A
:10055000711D811D911D42E0660F771F881F991F35
:100560004A95D1F70895CF92DF92EF92FF920F93C1
:100570001F93CF93DF936A017B019FEF980F973F03
:1005800008F0BFC08093B803C091A102D091A2022D
:10059000209709F4D4C081E0C8168BE4D806E104A2
:1005A000F10408F0B1C060E478E78DE791E0A701BD
:1005B00096010E94750E2093B9033093BA034093BD
:1005C000BB035093BC0360E475EA8EEA92E0A70196
:1005D00096010E94750E2093BD033093BE03409395
:1005E000BF035093C003E889F98982E08083C11476
:1005F000A1EEDA06E104F104A1F060E079E08DE318
:1006000090E0A70196010E94750E21503109410921
:10061000510956954795379527952115B0E13B0728
:1006200098F0E889F989108260E874E88EE190E03A
:10063000A70196010E94750E215031094109510907
:100640005695479537952795EC85FD853083EE8542
:10065000FF852083188EEC89FD8986E08083EA89F6
:10066000FB89808188698083EA89FB8980818F7D0D
:1006700080838091A7028F3F41F061E00E94520287
:1006800060E08091A7020E94C6010E948E026B0169
:100690007C018091A5029091A602DC01ED91FC9174
:1006A0000084F185E02D0995892B79F00E948E0256
:1006B0006B017C018091A5029091A602DC01ED9175
:1006C000FC910284F385E02D09950E948E026C193D
:1006D0007D098E099F090091BD031091BE032091F1
:1006E000BF033091C003601771078207930788F238
:1006F000DF91CF911F910F91FF90EF90DF90CF90FE
:1007000008951092B80340CF60E876E988E990E058
:10071000A70196010E94750EDA01C90182519D4F11
:10072000AF4FBF4F8093B9039093BA03A093BB031D
:10073000B093BC032A52394F4F4F5F4F4CCFC091FB
:10074000A302D091A402209709F493CF81E0C816A8
:100750008BE4D806E104F10408F0BAC060E478E75D
:100760008DE791E0A70196010E94750E2093B903D1
:100770003093BA034093BB035093BC0360E475EA23
:100780008EEA92E0A70196010E94750E2093BD03A8
:100790003093BE034093BF035093C0031B8E1A8E49
:1007A000198E188E1F8A1E8A60E079E08DE390E032
:1007B000A70196010E94970EF901C9010397243001
:1007C000310510F481E090E09D8F8C8F6C8567314E
:1007D00008F057C0C901969587958431910508F4B2
:1007E00092C043979F8B8E8BC9010597369710F463
:1007F00081E090E0998F888FC901880F991F280F99
:10080000391F36952795369527952D30310508F4F3
:100810007DC02C5031093B8F2A8F9091680084E075
:10082000683054F081E06E303CF082E0643124F0B6
:1008300081E0663109F480E0892B809368009C8513
:100840002DE630E0983074F09E300CF462C09431A4
:100850003CF096310CF45DC030E020E0963111F4AC
:100860002CE630E03C8B2B8B98300CF055C081E0AF
:1008700001C0880F9A95EAF78D8B8C8D9D8D01971D
:10088000F1F78A8D9B8D892B09F4F3CEE091E70176
:10089000F091E801CE17DF0709F4EBCE309739F07D
:1008A000A389B4899C918589809589238C938E8DA9
:1008B0008E7F8E8F1092E6011092E501D093E801B1
:1008C000C093E701EB89FC8980819D89892BD0CE7B
:1008D00060E876E988E990E0A70196010E94750E2C
:1008E000DA01C90182519D4FAF4FBF4F8093B903C9
:1008F0009093BA03A093BB03B093BC032A52394F21
:100900004F4F5F4F43CF81E090E06CCF21E030E06C
:1009100082CF2BE630E0A6CF9E3014F49850A7CFBC
:10092000963114F49E50A3CF80E0963109F0A4CF05
:1009300080E4A2CF8F929F92AF92BF92CF92DF922C
:10094000EF92FF926B017C010E948E024B015C01D1
:10095000C114D104E104F104B9F00E948E026819B7
:1009600079098A099B09683E73408105910580F3E6
:1009700021E0C21AD108E108F10888EE880E83E070
:10098000981EA11CB11CE4CFFF90EF90DF90CF9098
:10099000BF90AF909F908F900895AF92BF92CF92EB
:1009A000DF92EF92FF920F931F93CF93DF936C012F
:1009B0007B018B01040F151FEB015E01AE18BF0810
:1009C000C017D10759F06991D601ED91FC910190C2
:1009D000F081E02DC6010995892B79F7C501DF91DA
:1009E000CF911F910F91FF90EF90DF90CF90BF902C
:1009F000AF900895FC01538D448D252F30E0842F56
:100A000090E0821B930B541710F0CF960895019736
:100A10000895FC01918D828D981761F0A28DAE0F23
:100A2000BF2FB11D5D968C91928D9F5F9F73928FAA
:100A300090E008958FEF9FEF0895FC01918D828DD6
:100A4000981731F0828DE80FF11D858D90E00895A3
:100A50008FEF9FEF0895FC01918D228D892F90E0FB
:100A6000805C9F4F821B91098F739927089584E0C2
:100A700092E00E942B0521E0892B09F420E0822FCF
:100A8000089580E090E0892B29F00E9437058111BC
:100A90000C9400000895FC01A48DA80FB92FB11D7E
:100AA000A35ABF4F2C91848D90E001968F739927A4
:100AB000848FA689B7892C93A089B1898C91837082
:100AC00080648C93938D848D981306C00288F3897B
:100AD000E02D80818F7D80830895EF92FF920F93A8
:100AE0001F93CF93DF93EC0181E0888F9B8D8C8DDA
:100AF00098131AC0E889F989808185FF15C09FB7CE
:100B0000F894EE89FF896083E889F9898081837090
:100B1000806480839FBF81E090E0DF91CF911F913F
:100B20000F91FF90EF900895F62E0B8D10E00F5F60
:100B30001F4F0F731127E02E8C8D8E110CC00FB636
:100B400007FCFACFE889F989808185FFF5CFCE01CE
:100B50000E944B05F1CFEB8DEC0FFD2FF11DE35AF9
:100B6000FF4FF0829FB7F8940B8FEA89FB89808151
:100B70008062CFCFCF93DF93EC01888D8823B9F0CB
:100B8000AA89BB89E889F9898C9185FD03C0808198
:100B900086FD0DC00FB607FCF7CF8C9185FFF2CF15
:100BA000808185FFEDCFCE010E944B05E9CFDF911B
:100BB000CF910895FC01828D882349F08689978919
:100BC000DC01ED91FC910680F781E02D0994808D88
:100BD000918DF6CFFC01828D882349F08689978913
:100BE000DC01ED91FC910480F581E02D0994808D6C
:100BF000918DF6CFFC01828D882349F086899789F3
:100C0000DC01ED91FC910484F585E02D0994808D43
:100C1000918DF6CFFC01828D882349F086899789D2
:100C2000DC01ED91FC910284F385E02D0994808D27
:100C3000918DF6CFFC01828D882349F086899789B2
:100C4000DC01ED91FC910084F185E02D0994808D0B
:100C5000918DF6CFCF93DF93EC016E857F858889E8
:100C600099890E949A0461E08C850E94C60161E026
:100C70008D85DF91CF910C94C601CF93DF93EC016A
:100C8000E881F9810680F781E02D09956A897B89E1
:100C90008C899D890E949A0460E08C850E94C6011F
:100CA00060E08D85DF91CF910C94C601EF92FF92A9
:100CB0000F931F93CF93DF93EC018B017A010E9476
:100CC0002A068A8D8823B9F08E899F89DC01ED91EF
:100CD000FC910280F381E02DA701B80109958C01F8
:100CE000CE010E943D06C801DF91CF911F910F9167
:100CF000FF90EF900895888D998DE8CF0F931F9303
:100D0000CF93DF93EC01162F0E942A068A8D882349
:100D1000A1F08E899F89DC01ED91FC910190F08119
:100D2000E02D612F09958C01CE010E943D06C8017E
:100D3000DF91CF911F910F910895888D998DEBCF01
:100D400090E080E008958F929F92AF92BF92CF92F1
:100D5000DF92EF92FF920F93CF934B015C016901F9
:100D60007A0161E08DE00E94520260E08DE00E9415
:100D7000C60168EE73E080E090E00E949A04C0E053
:100D800061E08DE00E94C601C501B4010E949A0491
:100D900060E08DE00E94C601C701B6010E949A047E
:100DA000CF5F0C13EDCFCF910F91FF90EF90DF90BD
:100DB000CF90BF90AF909F908F9008951F920F9209
:100DC0000FB60F9211242F933F934F935F936F931E
:100DD0007F938F939F93AF93BF93EF93FF93E09194
:100DE000E701F091E801309749F0A685B785858540
:100DF000968D91FF14C09C918923A1F4FF91EF91EE
:100E0000BF91AF919F918F917F916F915F914F9122
:100E10003F912F910F900FBE0F901F9018959C91AE
:100E2000892361F7A389B4899C9185898095892359
:100E30008C93868997890197F1F7608D718DA685CE
:100E4000B785558538E020E0CB010197F1F7822F77
:100E500090E095958795282F4C91452309F02068BF
:100E6000315091F7868D81FD20958091E60190E0CB
:100E700001968F7399273091E501381799F0A09169
:100E8000E601B0E0AB55BE4F2C938093E601828D16
:100E9000938D0197F1F7A389B4898C919589892B5A
:100EA0008C93ACCF868D8160868FF1CF1F920F928D
:100EB0000FB60F9211242F933F938F939F93AF936D
:100EC000BF9380919D0190919E01A0919F01B0914F
:100ED000A00130919C0123E0230F2D3768F126E813
:100EE000230F0296A11DB11D20939C0180939D01AB
:100EF00090939E01A0939F01B093A0018091A101C6
:100F00009091A201A091A301B091A4010196A11D0D
:100F1000B11D8093A1019093A201A093A301B0936E
:100F2000A401BF91AF919F918F913F912F910F900D
:100F30000FBE0F901F9018950196A11DB11DD4CF23
:100F40001F920F920FB60F9211242F933F934F933E
:100F50005F936F937F938F939F93AF93BF93EF9321
:100F6000FF9384E092E00E944B05FF91EF91BF91C7
:100F7000AF919F918F917F916F915F914F913F9131
:100F80002F910F900FBE0F901F9018951F920F92E8
:100F90000FB60F9211242F938F939F93EF93FF938C
:100FA000E0911402F09115028081E0911A02F09113
:100FB0001B0282FD1BC0908180911D028F5F8F7389
:100FC00020911E02821741F0E0911D02F0E0EC5FDB
:100FD000FD4F958F80931D02FF91EF919F918F910F
:100FE0002F910F900FBE0F901F9018958081F4CF16
:100FF000CF92DF92EF92FF92CF93DF9384E092E063
:10100000109207021092060228EEC22E23E0D22E82
:10101000E12CF12CC0920802D0920902E0920A025F
:10102000F0920B0226E231E0309305022093040295
:1010300025EC30E0309311022093100224EC30E0D4
:10104000309313022093120220EC30E0309315020B
:101050002093140221EC30E0309317022093160203
:1010600022EC30E0309319022093180226EC30E095
:1010700030931B0220931A0210921D0210921E023E
:1010800010921F02109220021092B1031092B0032E
:101090001092B3031092B2031092B5031092B403EE
:1010A0001092B7031092B6039093A2028093A1020C
:1010B0001092A4021092A3029093A6028093A5021C
:1010C0001092A9031092A8031092AB031092AA03E6
:1010D0001092AD031092AC031092AF031092AE03C6
:1010E00082E08093A7021092EC011092EB01C09273
:1010F000ED01D092EE01E092EF01F092F0018AE46E
:1011000091E09093EA018093E9011092000210921D
:10111000FF01109202021092010284E08093F50117
:101120008093F6018AE090E0A0E0B0E08093F701C0
:101130009093F801A093F901B093FA0181E090E057
:10114000A0E0B0E08093FB019093FC01A093FD012F
:10115000B093FE018FE190E00E94BC0EEC011B8277
:101160001A82CC82DD82EE82FF8288E391E099834D
:1011700088831F8A1E8A198E188E1B8E1A8E1D8ECA
:101180001C8E6E8D6E7F6D7F6E8F6695617081E0B7
:10119000682785E00E94C60161E085E00E94520256
:1011A000E9EBF0E0E491E88BE2EAF0E0E491F0E0D2
:1011B000EE0FFF1FED56FF4F859194919A8B898B0F
:1011C00060E083E00E9452028E8D81FD04C061E0E8
:1011D00083E00E94C60183E08C87E7EBF0E0E491B6
:1011E000ED87E0EAF0E0E491F0E0EE0FFF1FE75753
:1011F000FF4F859194919F878E87D0930002C09373
:10120000FF01109202021092010281E0809303021A
:10121000DF91CF91FF90EF90DF90CF900895CF9323
:10122000DF93CDB7DEB72F970FB6F894DEBF0FBEB2
:10123000CDBF789484B5836084BD85B5836085BD5A
:1012400080916E00816080936E0082E080938100C7
:101250008091810081608093810080918000816015
:10126000809380008091B10084608093B100809170
:10127000B00081608093B00087E880937A0010927C
:10128000C100109287011092860110928501109280
:10129000840162E086E00E94520261E08DE00E94DB
:1012A000520203E022E330E040E050E062E370E00D
:1012B00080E090E00E94A30686E00E949D01892BB9
:1012C00049F4809186019091870182609093870113
:1012D000809386014EE050E060E072E0CE0101961E
:1012E0000E944D0E41E050E06EE072E0CE010F969C
:1012F0000E944D0ECE0101960E9491009F85891794
:1013000049F08091860190918701816090938701D7
:101310008093860189819A819093770180937601E9
:101320002B813C8130937901209378014D815E813E
:1013300050937B0140937A014F81588550937D01F2
:1013400040937C0149855A8550937F0140937E01EB
:101350004B855C8550938101409380014D855E856E
:1013600050938301409382014091860150918701FF
:10137000BA016E7F7093870160938601E8E5F1E022
:101380006FEF7FEF61937193A1E0E637FA07D1F732
:1013900066E771E07093AF036093AE0361E170E0C4
:1013A0007093B7036093B60368E571E07093AD0383
:1013B0006093AC036FE070E07093B5036093B40387
:1013C00041FD0AC0AC01415051094F3F510520F485
:1013D0002630310508F4E6C040EC52E160E070E0F0
:1013E0008AE00E94B30205E02CE231E040E050E0E8
:1013F0006CE271E080E090E00E94A30688E19EE04C
:101400000FB6F894A895809360000FBE909360008B
:101410008FB7F89440919D0150919E0160919F017A
:101420007091A0018FBF2FB7F89480919D0190918A
:101430009E01A0919F01B091A0012FBF80939801C0
:1014400090939901A0939A01B0939B01812C912CC8
:1014500054018394E0E0CE2EE0E0DE2EEE24EA9408
:10146000FE2CA8958091A5029091A602DC01ED9139
:10147000FC910084F185E02D0995892B09F407C1C1
:10148000412C512C320110E000E08091A502909196
:10149000A602DC01ED91FC910084F185E02D099517
:1014A000892BA9F00E948E022B013C018091A5029C
:1014B0009091A602DC01ED91FC910284F385E02D70
:1014C0000995F801EF55FD4F87830F5F1F4F0E946D
:1014D0008E0264197509860997092091B903309124
:1014E000BA034091BB035091BC0326173707480746
:1014F000590720F00F3F110541F238F20E948E0289
:1015000064197509860997092091BD033091BE03BE
:101510004091BF035091C00362177307840795077A
:1015200068F38091A5029091A602DC01ED91FC91F7
:101530000084F185E02D0995892B09F0A8C08091E0
:10154000A8029091B803891711F08111A0C08EEF05
:10155000800F0E94AD00F801EF55FD4F26813581C7
:101560002327322723278217930709F090C0E091A1
:10157000A902E150E03108F03DC0F0E0EE53F54F34
:101580000C94B60EDE0A390C9D0CED0C3D0D700D61
:10159000FA0AFA0AFA0AFA0AFA0AFA0AFA0AFA0A2B
:1015A0009A0DFB0D220F331F220F331FF901EA5F43
:1015B000FE4F408151816281738113CFE091AA0275
:1015C000F091AB02FE27EF27FE278091AC029091AD
:1015D000AD029827892798274091A8035091A90325
:1015E0004115510539F02091B0033091B103211517
:1015F000310511F481E007C0BC0161507109603D03
:10160000774020F083E00E94490241C02817390743
:1016100028F0281B390B2E173F0710F482E0F3CF78
:101620009C01295F3F4F63E0369527956A95E1F766
:101630002093AA02E40FF51F30E020E00191A901F8
:10164000477055272401350104C0440C551C661C05
:10165000771C4A95D2F7A201D90153E0B695A79518
:101660005A95E1F7AC55BD4F17961C91179700237B
:1016700009F4FCC0412B17964C932F5F3F4F28175E
:101680003907E1F68091AA028D5F0E94F4012FB71D
:10169000F89480919D0190919E01A0919F01B0913D
:1016A000A0012FBF409198015091990160919A013A
:1016B00070919B01481759076A077B0790F58FB710
:1016C000F89440919D0150919E0160919F0170910D
:1016D000A0018FBF81E090E02091860130918701C9
:1016E000232B11F090E080E0880F991FFC01E25E4F
:1016F000FE4F80819181480F591F611D711D4093DC
:1017000098015093990160939A0170939B018DE029
:101710000E949D0161E0892B09F060E08DE00E944C
:10172000C60180915801909159018F3F9807F1F0BF
:101730009C01215031092E3F3105A0F42091760102
:10174000309177018217930769F0209184013091DD
:101750008501909377018093760122623093850111
:1017600020938401F0925901E092580180915A012E
:1017700090915B018F3F9807D9F086309105A0F4D6
:1017800020917801309179018217930769F02091B7
:1017900084013091850190937901809378012262D0
:1017A0003093850120938401F0925B01E0925A010D
:1017B0008091840181FF48C08091760190917701EA
:1017C0009A83898380917801909179019C838B839E
:1017D00080917A0190917B019E838D8380917C0121
:1017E00090917D0198878F8380917E0190917F01F8
:1017F0009A87898780918001909181019C878B874E
:1018000080918201909183019E878D87CE01019600
:101810000E9491008F874EE050E060E072E0CE01C0
:1018200001960E945D0E41E050E06EE072E0CE0154
:101830000F960E945D0E80918401909185018D7FAD
:1018400090938501809384018091840185FF02C07B
:101850000C940000C114D10409F403CE0E94370592
:10186000882309F4FECD0E940000FBCD4095412362
:1018700002CFE091AA02F091AB02FE27EF27FE27EC
:101880008091AC029091AD029827892798274091CA
:10189000AA035091AB034115510509F4ABCE209139
:1018A000B2033091B3032115310509F4A3CEBC0175
:1018B00061507109603D774008F0A4CE28173907C0
:1018C00008F4ACCE281B390B2E173F0708F4A6CE20
:1018D0009C01295F3F4F03E0369527950A95E1F774
:1018E0002093AA02E40FF51F30E020E00191A90146
:1018F000477055272401350104C0440C551C661C53
:10190000771C4A95D2F7A201D90113E0B695A795A5
:101910001A95E1F7AC55BD4F17961C911797002308
:1019200049F0412B17964C932F5F3F4F28173907EB
:10193000E9F6A8CE40954123F5CFE091AA02F091B7
:10194000AB02FE27EF27FE274091AC035091AD0379
:101950004115510509F44ECE8091B4039091B50321
:10196000009709F447CE2091AC023091AD023227A6
:1019700023273227B901615071096D37710508F0CD
:1019800041CE8217930708F449CE821B930B8E1722
:101990009F0708F443CE822F880F8093AA02EE0F90
:1019A000FF1FBF01640F751FA1EAB2E090E080E065
:1019B000FB0141816E5F7F4F1A964C931A97AB01E2
:1019C00042505109FA0140811B964C931B97019696
:1019D00012968217930761F755CEE091AA02F09113
:1019E000AB02FE27EF27FE274091AE035091AF03D5
:1019F0004115510509F4FECD8091B6039091B703CE
:101A0000009709F4F7CD2091AC023091AD02322756
:101A100023273227B901615071096D37710508F02C
:101A2000F1CD8217930708F4F9CD821B930B8E1723
:101A30009F0708F4F3CD822F880F8093AA02EE0F40
:101A4000FF1FBF01640F751FA1EAB2E090E080E0C4
:101A5000FB0141816E5F7F4F1A964C931A97AB0141
:101A600042505109FA0140811B964C931B970196F5
:101A700012968217930761F705CE2091AA02309142
:101A8000AB023227232732274091AC025091AD029E
:101A90005427452754278091A8039091A9030097C4
:101AA00009F4A8CD6091B0037091B103611571057F
:101AB00009F4A0CD4115510529F04115FFEF5F074D
:101AC00009F0A0CD2617370708F0A8CD820F931F85
:101AD00021E0452B09F420E0DC012C9386E0D5CDF4
:101AE0008091AA029091AB0298278927982740916C
:101AF000AC025091AD025427452754272091AC03E6
:101B00003091AD032115310509F474CD6091B40312
:101B10007091B5036115710509F46CCD86179707AF
:101B200008F07CCD880F991F820F931FFC01518311
:101B30004083D4CF6091AA027091AB0276276727C9
:101B400076278091AC029091AD029827892798273B
:101B50002091A8033091A903232B09F44BCD2091A8
:101B6000B0033091B1032115310509F443CDAC0127
:101B700041505109403BF7E05F0708F043CDE09149
:101B8000AE02485F5F4F03E0569547950A95E1F72F
:101B9000E417150609F036CD2817390708F43ECDAD
:101BA000281B390B2617370708F438CD50E040E0E2
:101BB000E091A803F091A903E40FF51FE60FF71FCA
:101BC000DA0113E0B695A7951A95E1F7AF55BD4F29
:101BD0001E962C9130E0DA01A770BB2702C0359524
:101BE0002795AA95E2F7217020834F5F5F4F481732
:101BF0005907F1F673CF8091AA029091AB02982712
:101C0000892798272091AC023091AD0232272327F3
:101C100032274091AC035091AD03452B09F4EACC37
:101C20004091B4035091B5034115510509F4E2CC3C
:101C3000B901615071096B37710508F0E3CCE0918F
:101C4000AE02B901660F771FE617170609F0DACC66
:101C50004217530708F4E2CC421B530B48175907AD
:101C600008F4DCCC880F991FE1EAF2E050E040E094
:101C7000815A9240A091AC03B091AD03AE0FBF1F4B
:101C8000A80FB91F768567856D937C934F5F5F4F73
:101C900032964217530771F721CFDC01CB01FC01CB
:101CA000F999FECF06C0F2BDE1BDF89A319600B4B5
:101CB0000D9241505040B8F70895DC01CB0103C0AC
:101CC0002D910E94680E41505040D0F70895262F64
:101CD000F999FECF1FBA92BD81BD20BD0FB6F89411
:101CE000FA9AF99A0FBE01960895A1E21A2EAA1B3C
:101CF000BB1BFD010DC0AA1FBB1FEE1FFF1FA217BC
:101D0000B307E407F50720F0A21BB30BE40BF50BB8
:101D1000661F771F881F991F1A9469F76095709541
:101D2000809590959B01AC01BD01CF010895052ED2
:101D300097FB1EF400940E94AE0E57FD07D00E9440
:101D4000750E07FC03D04EF40C94AE0E50954095E2
:101D5000309521953F4F4F4F5F4F08959095809557
:101D6000709561957F4F8F4F9F4F0895EE0FFF1F26
:101D70000590F491E02D09940F931F93CF93DF9377
:101D80008230910510F482E090E0E091C303F0917D
:101D9000C40330E020E0B0E0A0E0309799F42115D2
:101DA000310509F44AC0281B390B24303105D8F518
:101DB0008A819B816115710589F1FB01938382837F
:101DC000FE0111C0408151810281138148175907DA
:101DD000E0F04817590799F4109761F012960C93A8
:101DE000129713961C933296CF01DF91CF911F91DA
:101DF0000F9108950093C3031093C403F4CF2115EA
:101E0000310551F04217530738F0A901DB019A015F
:101E1000BD01DF01F801C1CFEF01F9CF9093C403F9
:101E20008093C303CDCFFE01E20FF31F8193919303
:101E30002250310939832883D7CF2091C1033091B3
:101E4000C203232B41F4209102013091030130930E
:101E5000C2032093C103209100013091010121159B
:101E6000310541F42DB73EB7409104015091050171
:101E7000241B350BE091C103F091C203E217F30775
:101E8000A0F42E1B3F0B2817390778F0AC014E5FEA
:101E90005F4F2417350748F04E0F5F1F5093C20362
:101EA0004093C103819391939FCFF0E0E0E09CCFFA
:101EB000CF93DF930097E9F0FC01329713821282EF
:101EC000A091C303B091C403ED0130E020E010976E
:101ED000A1F420813181820F931F2091C1033091A1
:101EE000C2032817390709F061C0F093C203E093D9
:101EF000C103DF91CF910895EA01CE17DF07E8F51E
:101F00004A815B819E0141155105B1F7E901FB83CF
:101F1000EA8349915991C40FD51FEC17FD0761F46D
:101F2000808191810296840F951FE90199838883AE
:101F3000828193819B838A83F0E0E0E012968D9109
:101F40009C9113970097B9F52D913C911197CD0174
:101F50000296820F931F2091C1033091C20328176C
:101F6000390739F6309751F51092C4031092C30324
:101F7000B093C203A093C103BCCFD383C28340817B
:101F80005181840F951FC817D90761F44E5F5F4FC9
:101F900088819981480F591F518340838A819B8191
:101FA000938382832115310509F0B0CFF093C403E8
:101FB000E093C3039ECFFD01DC01C0CF13821282E8
:061FC000D7CFF894FFCF1B
:101FC6000000C5038000C012000080250000004B01
:101FD60000000096000000E1000000C20100E803D6
:101FE6006400000000006D05CD04FA04BA052B0557
:101FF60009051D0500000000E100CD04A006E00073
:102006003D015301C800000000007E065606EA05A1
:08201600DA051A060A06FA05B4
:00000001FF
